:100000000C9462000C948A000C948A000C948A0070
:100010000C948A000C948A000C948A000C948A0038
:100020000C948A000C948A000C948A000C948A0028
:100030000C948A000C948A000C948A000C948A0018
:100040000C941C050C948A000C94EA040C94C404CF
:100050000C948A000C948A000C948A000C948A00F8
:100060000C948A000C948A000000000023002600F3
:10007000290000000008000201000003040700003E
:1000800000000000000000000000250028002B00F8
:1000900000000000240027002A00040404040404D3
:1000A0000404020202020202030303030303010227
:1000B00004081020408001020408102001020408F6
:1000C0001020660511241FBECFEFD8E0DEBFCDBFE4
:1000D00012E0A0E0B1E0E4E1F4E202C005900D928C
:1000E000A434B107D9F723E0A4E4B2E001C01D9223
:1000F000A839B207E1F710E0C2E6D0E004C02197CA
:10010000FE010E94FB11C136D107C9F70E94B0055C
:100110000C9408120C94000090E0FC01E255FF4F93
:10012000249186569F4FFC018491882399F090E09A
:10013000880F991FFC01E057FF4FA591B491FC0176
:10014000EA57FF4F859194918FB7F894EC91E22B89
:10015000EC938FBF0895AF92BF92CF92DF92EF9250
:10016000FF920F931F93CF93DF936C017B018B0161
:10017000040F151FEB015E01AE18BF08C017D107B1
:1001800059F06991D601ED91FC910190F081E02D3B
:10019000C6010995892B79F7C501DF91CF911F9190
:1001A0000F91FF90EF90DF90CF90BF90AF900895A8
:1001B000FC01538D448D252F30E0842F90E0821B6D
:1001C000930B541710F0CF96089501970895FC01F2
:1001D000918D828D981761F0A28DAE0FBF2FB11D4A
:1001E0005D968C91928D9F5F9F73928F90E00895A2
:1001F0008FEF9FEF0895FC01918D828D981731F05C
:10020000828DE80FF11D858D90E008958FEF9FEFAF
:100210000895FC01918D228D892F90E0805C9F4F85
:10022000821B91098F739927089583EE92E00E94B3
:10023000090121E0892B09F420E0822F089580E054
:1002400090E0892B29F00E94150181110C94000087
:100250000895FC01A48DA80FB92FB11DA35ABF4F5B
:100260002C91848D90E001968F739927848FA689B5
:10027000B7892C93A089B1898C91837080648C9309
:10028000938D848D981306C00288F389E02D8081B8
:100290008F7D80830895EF92FF920F931F93CF93EA
:1002A000DF93EC0181E0888F9B8D8C8D98131AC0B1
:1002B000E889F989808185FF15C09FB7F894EE8998
:1002C000FF896083E889F9898081837080648083F5
:1002D0009FBF81E090E0DF91CF911F910F91FF9040
:1002E000EF900895F62E0B8D10E00F5F1F4F0F73E8
:1002F0001127E02E8C8D8E110CC00FB607FCFACFA3
:10030000E889F989808185FFF5CFCE010E94290116
:10031000F1CFEB8DEC0FFD2FF11DE35AFF4FF08273
:100320009FB7F8940B8FEA89FB8980818062CFCFD9
:10033000CF93DF93EC01888D8823B9F0AA89BB891C
:10034000E889F9898C9185FD03C0808186FD0DC007
:100350000FB607FCF7CF8C9185FFF2CF808185FF28
:10036000EDCFCE010E942901E9CFDF91CF91089511
:10037000833081F028F4813099F08230A9F008951B
:100380008730A9F08830C9F08430B1F480918000C2
:100390008F7D03C0809180008F77809380000895C7
:1003A00084B58F7784BD089584B58F7DFBCF809110
:1003B000B0008F778093B00008958091B0008F7D5A
:1003C000F9CFCF93DF93282F30E0F901EE58FF4F9C
:1003D0008491F901E255FF4FD491F901E656FF4FA0
:1003E000C491CC23A1F081110E94B801EC2FF0E060
:1003F000EE0FFF1FE859FF4FA591B491EC91ED234B
:1004000081E090E009F480E0DF91CF91089580E0F1
:1004100090E0FACF1F93CF93DF93282F30E0F901BC
:10042000EE58FF4F8491F901E255FF4FD491F90145
:10043000E656FF4FC491CC23A9F0162F81110E94DC
:10044000B801EC2FF0E0EE0FFF1FEA57FF4FA59128
:10045000B4918FB7F894EC91111108C0D095DE23B8
:10046000DC938FBFDF91CF911F910895DE2BF8CFE2
:100470003FB7F8948091490290914A02A0914B02B3
:10048000B0914C0226B5A89B05C02F3F19F00196EC
:10049000A11DB11D3FBFBA2FA92F982F8827BC01DE
:1004A000CD01620F711D811D911D42E0660F771F06
:1004B000881F991F4A95D1F708958F929F92AF9206
:1004C000BF92CF92DF92EF92FF924B015C010E94AC
:1004D00038026B017C010E9438026C197D098E097B
:1004E0009F09683E734081059105A8F321E0821AB7
:1004F0009108A108B10888EEC80E83E0D81EE11C5F
:10050000F11C81149104A104B10429F7FF90EF902C
:10051000DF90CF90BF90AF909F908F9008950895F7
:1005200090E080E008958DE00E94E1018130910526
:1005300041F18CE00E94E1010197A9F08BE00E945B
:10054000E101019799F08AE00E94E101019789F0A9
:1005500089E00E94E101019779F082E00E94E101C7
:10056000019769F0089582E090E0089583E090E0BB
:10057000089584E090E0089585E090E0089586E095
:1005800090E008950F931F93CF93DF938C010E9407
:100590005A11C1EED2E08883C80101960E945A1117
:1005A0008983CE01DF91CF911F910F9108958F9292
:1005B0009F92AF92BF920F931F93CF93DF93CDB7CC
:1005C000DEB7A1970FB6F894DEBF0FBECDBF19A25C
:1005D000423008F44AE08E010F5D1F4F842E912CAB
:1005E000B12CA12CA50194010E94A211E62FB90102
:1005F000CA01EA3044F5E05DD801EE938D01232B6A
:10060000242B252B79F790E080E0109769F0FD010D
:1006100001900020E9F73197AF014A1B5B0BBD0148
:1006200080E893E00E94AB00A1960FB6F894DEBF7D
:100630000FBECDBFDF91CF911F910F91BF90AF90B3
:100640009F908F900895E95CD7CFFC010190002026
:10065000E9F73197AF01481B590BBC0180E893E0E3
:100660000C94AB00CF93DF93EC0160E08E810E948D
:100670000A0261E08E810E940A0260E08E810E947F
:100680000A028BE891E00197F1F7DF91CF9108958D
:10069000CF92DF92EF92FF920F931F93CF93DF934E
:1006A0006C017C0187E0E80EF11CD0E0C0E0062F71
:1006B00010E0B8010C2E02C0759567950A94E2F718
:1006C0006170F70181917F010E940A022196C43076
:1006D000D10579F7C601DF91CF911F910F91FF905E
:1006E000EF90DF90CF900C943203CF92DF92EF9295
:1006F000FF920F931F93CF93DF93EC01F62E642F9D
:100700008C810E940A028D818F3F19F060E00E9467
:100710000A020F2D10E08F8584FF25C06E0187E04F
:10072000C80ED11CF12CE12CB8010E2C02C075951D
:1007300067950A94E2F76170F60181916F010E945A
:100740000A02FFEFEF1AFF0A88E0E816F10461F7EA
:10075000CE01DF91CF911F910F91FF90EF90DF902D
:10076000CF900C943203B80184E0759567958A9513
:10077000E1F7CE010E9448036F2DCE01DF91CF91AA
:100780001F910F91FF90EF90DF90CF900C94480352
:1007900040E0682F80E893E00C94750381E00E94AC
:1007A000C8038BE39FE10197F1F70895CF93DF939F
:1007B000823029F490918F03986090938F038093F7
:1007C00093031092940380E48093950380E18093D7
:1007D000960380E580939703809184030E948C00A8
:1007E000809185038F3F11F00E948C0080918603D9
:1007F0000E948C00C0E8D3E09E01205833408091D5
:100800008F0384FD0AC084E090E021962817390701
:100810003CF48E810E948C00EFCF88E090E0F5CF11
:100820008BE39DE00197F1F760E0809184030E94E3
:100830000A0260E0809186030E940A02809185038B
:100840008F3F19F060E00E940A0280918F0384FDBF
:1008500034C063E080E893E00E944803CBE4D6E430
:10086000CE010197F1F763E080E893E00E9448032E
:100870002197F1F763E080E893E00E94480383E565
:1008800092E00197F1F762E080E893E00E9448036C
:1008900080918F0380620E94C80384E0809390035C
:1008A0008CE00E94C8030E94CE0382E080939103F3
:1008B00086E0DF91CF910C94C80380620E94C80348
:1008C0008BE496E40197F1F780918F0380620E9498
:1008D000C80383E592E00197F1F780918F0380626E
:1008E0000E94C803D5CFE0919303E23040F4E15079
:1008F000F0E0E058FC4F848980680C94C803E1E084
:10090000F7CF41E00E94750381E090E00895CF9217
:10091000DF92EF92FF926C01990FEE08FF08F7FE4D
:1009200016C041E06DE280E893E00E9475036627FF
:100930007727CB016C197D098E099F094AE00E9437
:10094000D7020196FF90EF90DF90CF9008954AE094
:10095000C701B601FF90EF90DF90CF900C94D702C3
:100960001F93CF93DF93EC01162F0E945A11181793
:1009700039F0612FCE01DF91CF911F910C9462115C
:10098000DF91CF911F9108951F920F920FB60F9292
:1009900011242F933F934F935F936F937F938F9384
:1009A0009F93AF93BF93EF93FF9383EE92E00E94E8
:1009B0002901FF91EF91BF91AF919F918F917F910D
:1009C0006F915F914F913F912F910F900FBE0F90BC
:1009D0001F9018951F920F920FB60F9211242F930C
:1009E0008F939F93EF93FF93E091F302F091F402C2
:1009F0008081E091F902F091FA0282FD1BC09081A2
:100A00008091FC028F5F8F732091FD02821741F06D
:100A1000E091FC02F0E0ED51FD4F958F8093FC02D8
:100A2000FF91EF919F918F912F910F900FBE0F909B
:100A30001F9018958081F4CF1F920F920FB60F92DE
:100A400011242F933F938F939F93AF93BF938091E4
:100A5000450290914602A0914702B0914802309120
:100A6000440223E0230F2D3758F50196A11DB11D37
:100A7000209344028093450290934602A09347023C
:100A8000B09348028091490290914A02A0914B0292
:100A9000B0914C020196A11DB11D80934902909323
:100AA0004A02A0934B02B0934C02BF91AF919F9129
:100AB0008F913F912F910F900FBE0F901F9018951F
:100AC00026E8230F0296A11DB11DD2CFE3EEF2E07E
:100AD0001382128288EE93E0A0E0B0E084839583D5
:100AE000A683B7838CE091E09183808385EC90E0CE
:100AF0009587848784EC90E09787868780EC90E0E8
:100B0000918B808B81EC90E0938B828B82EC90E0D8
:100B1000958B848B86EC90E0978B868B118E128E52
:100B2000138E148EE0E8F3E0138212828EE191E0DE
:100B30009183808388E084838FEF858387E0868339
:100B400086E0878385E0808784E0818783E08287F1
:100B50001386148615861686178681E00C94D603B4
:100B6000789484B5826084BD84B5816084BD85B588
:100B7000826085BD85B5816085BD80916E00816094
:100B800080936E001092810080918100826080933A
:100B9000810080918100816080938100809180003C
:100BA0008160809380008091B10084608093B10067
:100BB0008091B00081608093B00080917A00846061
:100BC00080937A0080917A00826080937A0080918D
:100BD0007A00816080937A0080917A0080688093A7
:100BE0007A001092C100E091F302F091F40282E0E9
:100BF0008083E091EF02F091F0021082E091F10227
:100C0000F091F2028FEC80831092FB02E091F702E8
:100C1000F091F80286E08083E091F502F091F6020F
:100C2000808180618083E091F502F091F6028081FD
:100C300088608083E091F502F091F60280818068FF
:100C40008083E091F502F091F60280818F7D8083B0
:100C500082E00E94D60386E291E00E9425038EE0A6
:100C60000E948C0083E10E948C0090E080E00E9452
:100C7000C202FC01C081D181D093D602C093D502BB
:100C800084E090E00E94C202FC01808191819093F7
:100C9000D8028093D70288E090E00E94C202FC0153
:100CA000808191819093DA028093D9028CE090E068
:100CB0000E94C202FC01808191819093DC028093AA
:100CC000DB0280E190E00E94C202FC018081918100
:100CD0009093DE028093DD0284E190E00E94C202E4
:100CE000FC0180819181909362028093610266E3AE
:100CF00071E083E692E00E94011288E290E00E9497
:100D0000C202FC018081918190937A0280937902E2
:100D10008CE290E00E94C202FC018081918190935C
:100D200078028093770280E390E00E94C202FC0187
:100D30008081918190937C0280937B0260E471E0DA
:100D40008DE792E00E94011280E490E00E94C202CE
:100D5000FC0180819181909394028093930284E4BA
:100D600090E00E94C202FC018081918190939202E6
:100D70008093910288E490E00E94C202FC0180818D
:100D80009181909396028093950267E471E087E9E0
:100D900092E00E9401128CE590E00E94C202FC01E8
:100DA000808191819093AE028093AD0280E690E0C5
:100DB0000E94C202FC01808191819093AC028093D9
:100DC000AB0286E690E00E94C202FC018081918124
:100DD0009093B0028093AF0260E571E081EB92E006
:100DE0000E94011288E790E00E94C202FC0180810B
:100DF00091819093C8028093C7028CE790E00E9493
:100E0000C202FC01808191819093C6028093C50249
:100E10000E947304CE010E94870489E591E00E943C
:100E200025038091D7029091D8020E94870489E51A
:100E300091E00E9425038091D9029091DA020E94EC
:100E4000870489E591E00E9425038091DB0290915F
:100E5000DC020E94870489E591E00E9425038091CD
:100E6000DD029091DE020E94870466246394712C57
:100E700034E0832E912CA12CB12C45E0E42EF12CF2
:100E80005AE0C52ED12C82E3282E312C94E6492E2F
:100E9000512C8091020190910301892B11F40C9443
:100EA000A6100E949302019709F05FC00E94CE0332
:100EB0008BE591E00E942503C091DF02D091E00212
:100EC0002196D093E002C093DF020E9473048091C8
:100ED000D5029091D6028C0F9D1F0E94870489E550
:100EE00091E00E9425032091D7023091D802809191
:100EF000D3029091D402820F931F0E94870489E548
:100F000091E00E9425032091D9023091DA0280916C
:100F1000D1029091D202820F931F0E94870489E52B
:100F200091E00E9425032091DB023091DC02809148
:100F3000CF029091D002820F931F0E94870489E50F
:100F400091E00E9425032091DD023091DE02809124
:100F5000CD029091CE02820F931F0E94870464EF0E
:100F600071E080E090E00E945D020E94930202978F
:100F700009F063C00E94CE038BE691E00E94250336
:100F80008091D3029091D40201969093D4028093E1
:100F9000D3020E9473042091D5023091D602809131
:100FA000DF029091E002820F931F0E94870489E57F
:100FB00091E00E9425032091D7023091D8028091C0
:100FC000D3029091D402820F931F0E94870489E577
:100FD00091E00E9425032091D9023091DA0280919C
:100FE000D1029091D202820F931F0E94870489E55B
:100FF00091E00E9425032091DB023091DC02809178
:10100000CF029091D002820F931F0E94870489E53E
:1010100091E00E9425032091DD023091DE02809153
:10102000CD029091CE02820F931F0E94870464EF3D
:1010300071E080E090E00E945D020E9493020397BD
:1010400009F063C00E94CE038CE791E00E94250363
:101050008091D1029091D20201969093D202809316
:10106000D1020E9473042091D5023091D602809162
:10107000DF029091E002820F931F0E94870489E5AE
:1010800091E00E9425032091D7023091D8028091EF
:10109000D3029091D402820F931F0E94870489E5A6
:1010A00091E00E9425032091D9023091DA028091CB
:1010B000D1029091D202820F931F0E94870489E58A
:1010C00091E00E9425032091DB023091DC028091A7
:1010D000CF029091D002820F931F0E94870489E56E
:1010E00091E00E9425032091DD023091DE02809183
:1010F000CD029091CE02820F931F0E94870464EF6D
:1011000071E080E090E00E945D020E9493020497EB
:1011100009F063C00E94CE038DE891E00E94250390
:101120008091CF029091D00201969093D00280934B
:10113000CF020E9473042091D5023091D602809193
:10114000DF029091E002820F931F0E94870489E5DD
:1011500091E00E9425032091D7023091D80280911E
:10116000D3029091D402820F931F0E94870489E5D5
:1011700091E00E9425032091D9023091DA028091FA
:10118000D1029091D202820F931F0E94870489E5B9
:1011900091E00E9425032091DB023091DC028091D6
:1011A000CF029091D002820F931F0E94870489E59D
:1011B00091E00E9425032091DD023091DE028091B2
:1011C000CD029091CE02820F931F0E94870464EF9C
:1011D00071E080E090E00E945D020E94930205971A
:1011E00009F063C00E94CE038EE991E00E942503BE
:1011F0008091CD029091CE0201969093CE02809381
:10120000CD020E9473042091D5023091D6028091C4
:10121000DF029091E002820F931F0E94870489E50C
:1012200091E00E9425032091D7023091D80280914D
:10123000D3029091D402820F931F0E94870489E504
:1012400091E00E9425032091D9023091DA02809129
:10125000D1029091D202820F931F0E94870489E5E8
:1012600091E00E9425032091DB023091DC02809105
:10127000CF029091D002820F931F0E94870489E5CC
:1012800091E00E9425032091DD023091DE028091E1
:10129000CD029091CE02820F931F0E94870464EFCB
:1012A00071E080E090E00E945D020E949302069748
:1012B00009F04CC70E94CE032091DF023091E0027A
:1012C00045E0429FC001439F900D11244091D302FD
:1012D0005091D4026AE0649F9001659F300D112403
:1012E000280F391F4091D1025091D20264E1649FCE
:1012F000C001659F900D1124280F391F4091CF0226
:101300005091D00262E3649FC001659F900D11244B
:10131000820F931F4091CD025091CE0264E6649FEC
:101320009001659F300D1124820F931F9093CC0282
:101330008093CB02009709F4F9C60E94870480EBE2
:1013400091E00E9425030E9473048DEB91E00E94BE
:10135000250364EF71E080E090E00E945D0210924E
:1013600003011092020170920101609200018091CC
:10137000CB029091CC029093CA028093C90264EF91
:1013800071E080E090E00E945D020E94CE038DEB50
:1013900091E00E9425030E9473048091770290914E
:1013A00078020E94870489E591E00E9425038091DC
:1013B0009102909192020E94870489E591E00E9437
:1013C00025038091AB029091AC020E94870489E5CD
:1013D00091E00E9425038091C5029091C6020E946F
:1013E0008704C5E0DAE08091000190910101019746
:1013F00009F0A6C60E949302019709F066C00E94F8
:10140000CE038091CB029091CC0220917902309151
:101410007A02821B930B97FD27C3809177029091EC
:101420007802181619060CF01AC383E692E00E949F
:1014300025038091CB029091CC02209179023091CA
:101440007A02821B930B9093CC028093CB02809103
:101450005F029091600201969093600280935F0218
:10146000809177029091780201979093780280930F
:1014700077020E94730480917702909178020E9413
:10148000870489E591E00E94250380919102909163
:1014900092020E94870489E591E00E9425038091D1
:1014A000AB029091AC020E94870489E591E00E9412
:1014B00025038091C5029091C6020E94870464EFC3
:1014C00071E080E090E00E945D020E94930202972A
:1014D00009F066C00E94CE038091CB029091CC02AD
:1014E0002091930230919402821B930B97FDC4C20A
:1014F0008091910290919202181619060CF0B7C2D1
:101500008DE792E00E9425038091CB029091CC025E
:101510002091930230919402821B930B9093CC0202
:101520008093CB0280915D0290915E020196909330
:101530005E0280935D0280919102909192020197E8
:1015400090939202809391020E947304809177029B
:10155000909178020E94870489E591E00E9425031A
:1015600080919102909192020E94870489E591E016
:101570000E9425038091AB029091AC020E948704E7
:1015800089E591E00E9425038091C5029091C602F1
:101590000E94870464EF71E080E090E00E945D02A9
:1015A0000E949302039709F066C00E94CE038091C7
:1015B000CB029091CC022091AD023091AE02821B01
:1015C000930B97FD61C28091AB029091AC0218160B
:1015D00019060CF054C287E992E00E94250380911D
:1015E000CB029091CC022091AD023091AE02821BD1
:1015F000930B9093CC028093CB0280915B029091ED
:101600005C02019690935C0280935B028091AB0236
:101610009091AC0201979093AC028093AB020E9430
:10162000730480917702909178020E94870489E583
:1016300091E00E94250380919102909192020E9474
:10164000870489E591E00E9425038091AB02909187
:10165000AC020E94870489E591E00E9425038091F5
:10166000C5029091C6020E94870464EF71E080E099
:1016700090E00E945D020E949302049709F066C008
:101680000E94CE038091CB029091CC022091C702A0
:101690003091C802821B930B97FDFEC18091C50259
:1016A0009091C602181619060CF0F1C181EB92E078
:1016B0000E9425038091CB029091CC022091C70219
:1016C0003091C802821B930B9093CC028093CB0283
:1016D0008091590290915A02019690935A028093F8
:1016E00059028091C5029091C60201979093C6025B
:1016F0008093C5020E9473048091770290917802D2
:101700000E94870489E591E00E942503809191025F
:10171000909192020E94870489E591E00E9425033E
:101720008091AB029091AC020E94870489E591E020
:101730000E9425038091C5029091C6020E948704F1
:1017400064EF71E080E090E00E945D020E949302ED
:10175000059709F088C00E94CE0385EE91E00E94B3
:1017600025038091C9029091CA029093CC02809384
:10177000CB02809177029091780220915F023091A4
:101780006002820F931F909378028093770280917A
:1017900091029091920220915D0230915E02820F3F
:1017A000931F90939202809391028091AB0290914B
:1017B000AC0220915B0230915C02820F931F9093E8
:1017C000AC028093AB028091C5029091C602209139
:1017D000590230915A02820F931F9093C602809350
:1017E000C5021092600210925F0210925E02109287
:1017F0005D0210925C0210925B0210925A021092EB
:10180000590268EE73E080E090E00E945D020E9461
:10181000CE038DEB91E00E9425030E94730480911A
:101820007702909178020E94870489E591E00E94F6
:10183000250380919102909192020E94870489E58C
:1018400091E00E9425038091AB029091AC020E942E
:10185000870489E591E00E9425038091C50290915B
:10186000C6020E9487040E949302069709F0BBCD2E
:101870000E940211A50194010E9470116F5F7F4FB9
:101880008F4F9F4F6230710509F009C161E08EE012
:101890000E940A0268EE73E080E090E00E945D0220
:1018A00060E08EE00E940A020E94CE0380EF91E089
:1018B0000E9425030E94730480E092E00E942503A9
:1018C0000E9493020597E1F70E94CE0385EE91E016
:1018D0000E942503809177029091780220915F0207
:1018E00030916002820F931F909378028093770269
:1018F000809191029091920220915D0230915E025E
:10190000820F931F90939202809391028091AB0279
:101910009091AC0220915B0230915C02820F931F88
:101920009093AC028093AB028091C5029091C60265
:101930002091590230915A02820F931F9093C60250
:101940008093C5021092600210925F0210925E02B4
:1019500010925D0210925C0210925B0210925A0289
:101960001092590264EF71E080E090E00E945D0205
:1019700064EF71E080E090E00E945D02109201014E
:101980001092000170920301609202011092CC0249
:101990001092CB021092CA021092C9021092E00279
:1019A0001092DF021092D4021092D3021092D2024F
:1019B0001092D1021092D0021092CF021092CE0259
:1019C0001092CD0264EF71E080E090E00E945D0231
:1019D0000E94CE0386E291E00E9425030E947304D8
:1019E0008091D5029091D6020E94870489E591E00A
:1019F0000E9425038091D7029091D8020E9487040B
:101A000089E591E00E9425038091D9029091DA0244
:101A10000E94870489E591E00E9425038091DB0202
:101A20009091DC020E94870489E591E00E942503E1
:101A30008091DD029091DE020E9487041092600284
:101A400010925F0210925E0210925D0210925C0290
:101A500010925B0210925A0210925902C4CC8AEC86
:101A600091E00E94250305CD85ED91E0FACF8AEC47
:101A700091E00E94250368CD85ED91E0FACF8AECD4
:101A800091E00E942503CBCD85ED91E0FACF8AEC61
:101A900091E00E9425032ECE85ED91E0FACF61E022
:101AA00083E10E940A0268EE73E080E090E00E9409
:101AB0005D0260E083E10E940A028091D50290916C
:101AC000D6022091DF023091E002820F931F9093A3
:101AD000D6028093D5028091D7029091D8022091AE
:101AE000D3023091D402820F931F9093D802809337
:101AF000D7028091D9029091DA022091D1023091DF
:101B0000D202820F931F9093DA028093D9028091C0
:101B1000DB029091DC022091CF023091D002820F43
:101B2000931F9093DC028093DB028091DD02909101
:101B3000DE022091CD023091CE02820F931F90934E
:101B4000DE028093DD024091790250917A02809109
:101B50005F0290916002489F9001499F300D589F0D
:101B6000300D1124609193027091940240915D02B6
:101B700050915E02649FC001659F900D749F900D0F
:101B80001124280F391F6091AD027091AE0240916F
:101B90005B0250915C02649FC001659F900D749F31
:101BA000900D1124820F931F6091C7027091C8029B
:101BB0004091590250915A02649F9001659F300DE7
:101BC000749F300D1124820F931F4091C9025091D0
:101BD000CA02481B590B50935802409357020E9467
:101BE000CE038DE092E00E942503809157029091F0
:101BF00058020E94870420915702309158022436DF
:101C00003105E4F00091DD021091DE02C901B2015C
:101C10000E94D311061717070CF4C0C17093560227
:101C2000609355024CE94603C001479F900D112473
:101C3000820F931F9093580280935702E0915702AE
:101C4000F0915802E233F105E4F00091DB021091CB
:101C5000DC02CF01B1010E94D311061717070CF463
:101C6000A8C170935402609353024EEC4603C00126
:101C7000479F900D1124E80FF91FF0935802E0934D
:101C80005702E0915702F0915802E431F105ECF06F
:101C90000091D9021091DA02CF0164E170E00E9454
:101CA000D311061717070CF48FC17093520260937B
:101CB00051024CEE4603C001479F900D1124E80FDE
:101CC000F91FF0935802E0935702E0915702F09108
:101CD0005802EA30F105E4F00091D7021091D802E1
:101CE000CF01B6010E94D311061717070CF477C174
:101CF0007093500260934F0246EF4603C001479F26
:101D0000900D1124E80FF91FF0935802E093570249
:101D1000E0915702F0915802E530F105E4F00091AE
:101D2000D5021091D602CF01B7010E94D311061738
:101D300017070CF45FC170934E0260934D024BEF96
:101D40004603C001479F900D1124E80FF91FF0933F
:101D50005802E0935702009155021091560280916B
:101D60004D0290914E02C89FA001C99F500D1124B1
:101D700060914F0270915002D69FC001D79F900D85
:101D80001124480F591F6091510270915202E4E1F1
:101D9000E69FC001E79F900D1124840F951F60916D
:101DA000530270915402F2E3F69FA001F79F500D89
:101DB0001124840F951F64E6609FA001619F500D60
:101DC0001124840F951F2817390709F01EC10E949E
:101DD0007304C8010E94870489E591E00E942503ED
:101DE00080915302909154020E94870489E591E00A
:101DF0000E94250380915102909152020E94870413
:101E000089E591E00E94250380914F029091500254
:101E10000E94870489E591E00E94250380914D028C
:101E200090914E020E94870489E591E00E9425036B
:101E30008091DD029091DE02209155023091560290
:101E4000821B930B9093DE028093DD028091DB0274
:101E50009091DC022091530230915402821B930B2B
:101E60009093DC028093DB028091D9029091DA0298
:101E70002091510230915202821B930B9093DA020F
:101E80008093D9028091D7029091D80220914F027D
:101E900030915002821B930B9093D8028093D7020B
:101EA0008091D5029091D60220914D0230914E0240
:101EB000821B930B9093D6028093D50210924E0210
:101EC00010924D021092500210924F021092520244
:101ED0001092510210925402109253021092560224
:101EE0001092550260ED77E080E090E00E945D0284
:101EF0006091D50290E080E00E94B0046091D7022A
:101F000084E090E00E94B0046091D90288E090E003
:101F10000E94B0046091DB028CE090E00E94B0046B
:101F20006091DD0280E190E00E94B00490E080E0EA
:101F30000E94C202FC01808191819093D60280931D
:101F4000D50284E090E00E94C202FC018081918170
:101F50009093D8028093D70288E090E00E94C2025A
:101F6000FC01808191819093DA028093D9028CE008
:101F700090E00E94C202FC01808191819093DC027A
:101F80008093DB0280E190E00E94C202FC0180812C
:101F900091819093DE028093DD02F0CC1093560283
:101FA000009355024CE94003C001419F900D11245C
:101FB0003FCE10935402009353024EEC4003C001F5
:101FC000419F900D112457CE10935202009351025D
:101FD0004CEE4003C001419F900D112470CE109330
:101FE000500200934F0246EF4003C001419F900D05
:101FF000112488CE10934E0200934D026BEF6003C4
:10200000C001619F900D1124A0CE8091D5029091C6
:10201000D6022091DF023091E002821B930B909355
:10202000D6028093D5028091D7029091D802209158
:10203000D3023091D402821B930B9093D8028093E9
:10204000D7028091D9029091DA022091D102309189
:10205000D202821B930B9093DA028093D902809173
:10206000DB029091DC022091CF023091D002821BE2
:10207000930B9093DC028093DB028091DD029091C0
:10208000DE022091CD023091CE02821B930B909301
:10209000DE028093DD028091770290917802209198
:1020A0005F0230916002820F931F909378028093B9
:1020B0007702809191029091920220915D0230917D
:1020C0005E02820F931F90939202809391028091FF
:1020D000AB029091AC0220915B0230915C02820FC6
:1020E000931F9093AC028093AB028091C5029091B4
:1020F000C6022091590230915A02820F931F909389
:10210000C6028093C50264EF71E080E090E00E9417
:102110005D020E94CE0388E192E00E9425030E94A6
:1021200073048AE292E00E942503C8CE86E392E01F
:102130000E9425030E94730486E291E00E94250319
:1021400064EF71E080E090E00E945D0280E090E04A
:10215000892B11F40C9449070E941501882311F46E
:102160000C9449070E9400000C9443078F929F92A1
:10217000AF92BF92CF92DF92EF92FF92CF93DF9315
:10218000EC01688179818A819B81611571058105E6
:10219000910521F464E279ED8BE597E02DE133EFD1
:1021A00041E050E00E94701149015A019B01AC01CD
:1021B000A7EAB1E40E948F116B017C01ACEEB4EF91
:1021C000A50194010E949D11C60ED71EE81EF91E9E
:1021D000F7FE06C081E0C81AD108E10880E8F80AD5
:1021E000C882D982EA82FB82C701B6019F77DF915C
:1021F000CF91FF90EF90DF90CF90BF90AF909F90E6
:102200008F9008958F929F92AF92BF92CF92DF925C
:10221000EF92FF9260910401709105018091060197
:1022200090910701611571058105910521F464E222
:1022300079ED8BE597E02DE133EF41E050E00E942E
:10224000701149015A019B01AC01A7EAB1E40E9457
:102250008F116B017C01ACEEB4EFA50194010E94DB
:102260009D11C60ED71EE81EF91EF7FE06C081E0BE
:10227000C81AD108E10880E8F80AC0920401D09297
:102280000501E0920601F0920701C701B6019F77B0
:10229000FF90EF90DF90CF90BF90AF909F908F9086
:1022A0000895609304017093050180930601909353
:1022B00007010895F999FECF92BD81BDF89A99273B
:1022C00080B50895262FF999FECF1FBA92BD81BD22
:1022D00020BD0FB6F894FA9AF99A0FBE01960895A8
:1022E000052E97FB1EF400940E94871157FD07D01E
:1022F0000E94A21107FC03D04EF40C948711509554
:102300004095309521953F4F4F4F5F4F08959095E1
:102310008095709561957F4F8F4F9F4F08950E94D4
:10232000C411A59F900DB49F900DA49F800D911D89
:1023300011240895B7FF0C948F110E948F11821BF6
:10234000930B0895A1E21A2EAA1BBB1BFD010DC021
:10235000AA1FBB1FEE1FFF1FA217B307E407F50755
:1023600020F0A21BB30BE40BF50B661F771F881F31
:10237000991F1A9469F760957095809590959B01C7
:10238000AC01BD01CF010895A29FB001B39FC00170
:10239000A39F700D811D1124911DB29F700D811D91
:1023A0001124911D089597FB072E16F4009407D071
:1023B00077FD09D00E94E71107FC05D03EF4909507
:1023C00081959F4F0895709561957F4F0895AA1B41
:1023D000BB1B51E107C0AA1FBB1FA617B70710F010
:1023E000A61BB70B881F991F5A95A9F78095909542
:1023F000BC01CD010895EE0FFF1F0590F491E02D73
:102400000994FB01DC0101900D920020E1F7089591
:04241000F894FFCF6E
:102414000100010001000000000000004B01AB00BE
:10242400D80098010901E700FB00000000008104C6
:10243400AB0090028F02504152412059554B4C45FC
:1024440059494E495A006B6F70756B6C656D650028
:1024540079696B616D6100647572756C616D6100A1
:1024640063696C616C616D610020003520746C20BF
:1024740079756B6C6564696E697A00313020746CAF
:102484002079756B6C6564696E697A0032302074EA
:102494006C2079756B6C6564696E697A00353020DF
:1024A400746C2079756B6C6564696E697A0031307F
:1024B4003020746C2079756B6C6564696E697A0080
:1024C40020746C2079756B6C6564696E0048697A58
:1024D4006D657420536563696E006B6F746120626F
:1024E4006974746900796574657273697A206261CC
:1024F4006B6979650072657365746C656E646900F7
:10250400476972646967696E697A20506172610013
:102514004765726920566572696C6469005061721E
:102524006120757374753A0059657465726C69201D
:10253400626F7A756B20796F6B00506172612069EC
:1025440061646573690020202021212148415441A0
:042554002121210020
:00000001FF
